:020000040800F2
:20000000000002205D550008DB500008DD500008DF500008E1500008E350000800000000F1
:20002000000000000000000000000000E5500008E750000800000000E9500008EB500008C0
:20004000AD550008AD550008AD550008AD550008AD550008AD550008AD550008AD55000850
:20006000AD550008AD550008AD550008AD550008AD550008AD550008AD550008AD55000830
:20008000AD550008AD550008AD550008AD550008AD550008AD550008AD550008AD55000810
:2000A000AD550008AD550008AD550008AD550008AD550008AD550008AD550008AD550008F0
:2000C000AD550008AD550008AD550008AD550008AD550008AD550008AD550008AD550008D0
:2000E000AD550008AD550008AD550008AD550008AD550008AD550008AD550008AD550008B0
:20010000AD550008AD550008AD550008AD550008AD550008AD550008AD550008AD5500088F
:20012000AD550008AD550008AD550008AD550008AD5500080000000000000000AD55000883
:20014000AD550008AD550008AD550008F5500008AD550008AD550008AD550008AD5500080C
:20016000AD550008AD550008AD550008AD550008AD550008AD550008000000000000000043
:20018000AD550008AD55000810B5054C237833B9044B13B10448AFF300800123237010BDA9
:2001A0006C010020000000006459000808B5034B1BB103490348AFF3008008BD0000000098
:2001C0007001002064590008034613F8012B002AFBD1181A0138704781F0004102E000BFDE
:2001E00083F0004330B54FEA41044FEA430594EA050F08BF90EA020F1FBF54EA000C55EA1A
:20020000020C7FEA645C7FEA655C00F0E2804FEA5454D4EB5555B8BF6D420CDD2C4480EAF8
:20022000020281EA030382EA000083EA010180EA020281EA0303362D88BF30BD11F0004FA8
:200240004FEA01314FF4801C4CEA113102D0404261EB410113F0004F4FEA03334CEA1333BD
:2002600002D0524263EB430394EA050F00F0A780A4F10104D5F1200E0DDB02FA0EFC22FA43
:2002800005F2801841F1000103FA0EF2801843FA05F359410EE0A5F120050EF1200E012A37
:2002A00003FA0EFC28BF4CF0020C43FA05F3C01851EBE37101F0004507D54FF0000EDCF13D
:2002C000000C7EEB00006EEB0101B1F5801F1BD3B1F5001F0CD349085FEA30004FEA3C0C2C
:2002E00004F101044FEA445212F5800F80F09A80BCF1004F08BF5FEA500C50F1000041EB40
:20030000045141EA050130BD5FEA4C0C404141EB0101013C28BFB1F5801FE9D291F0000F66
:2003200004BF01460020B1FA81F308BF2033A3F10B03B3F120020CDA0C3208DD02F1140CD6
:20034000C2F10C0201FA0CF021FA02F10CE002F11402D8BFC2F1200C01FA02F120FA0CFC5C
:20036000DCBF41EA0C019040E41AA2BF01EB0451294330BD6FEA04041F3C1CDA0C340EDC05
:2003800004F11404C4F1200220FA04F001FA02F340EA030021FA04F345EA030130BDC4F167
:2003A0000C04C4F1200220FA02F001FA04F340EA0300294630BD21FA04F0294630BD94F0E0
:2003C000000F83F4801306BF81F480110134013D4EE77FEA645C18BF7FEA655C29D094EAF0
:2003E000050F08BF90EA020F05D054EA000C04BF1946104630BD91EA030F1EBF0021002068
:2004000030BD5FEA545C05D14000494128BF41F0004130BD14F580043CBF01F5801130BD14
:2004200001F0004545F0FE4141F470014FF0000030BD7FEA645C1ABF194610467FEA655C5F
:200440001CBF0B46024650EA013406BF52EA033591EA030F41F4002130BD00BF90F0000F62
:2004600004BF0021704730B54FF4806404F132044FF000054FF0000150E700BF90F0000FA1
:2004800004BF0021704730B54FF4806404F1320410F0004548BF40424FF000013EE700BF98
:2004A00042004FEAE2014FEA31014FEA02701FBF12F07F4393F07F4F81F06051704732F0DA
:2004C0007F4208BF704793F07F4F04BF41F40021704730B54FF4607401F0004521F0004138
:2004E0001CE700BF50EA010208BF704730B54FF000050AE050EA010208BF704730B511F0CB
:20050000004502D5404261EB41014FF4806404F132045FEA915C3FF4D8AE4FF003025FEAE1
:20052000DC0C18BF03325FEADC0C18BF033202EBDC02C2F1200300FA03FC20FA02F001FAE9
:2005400003FE40EA0E0021FA02F11444BDE600BF4FF0FF3C06E000BF4FF0010C02E000BF8E
:200560004FF0010C4DF804CD4FEA410C7FEA6C5C4FEA430C18BF7FEA6C5C1BD001B050EAFC
:20058000410C0CBF52EA430C91EA030F02BF90EA020F0020704710F1000F91EA030F58BF54
:2005A000994208BF90422CBFD8176FEAE37040F0010070474FEA410C7FEA6C5C02D150EA95
:2005C000013C07D14FEA430C7FEA6C5CD6D152EA033CD3D05DF8040B704700BF844610468E
:2005E00062468C461946634600E000BF01B5FFF7B7FF002848BF10F1000F01BD4DF808ED41
:20060000FFF7F4FF0CBF012000205DF808FB00BF4DF808EDFFF7EAFF34BF012000205DF82C
:2006200008FB00BF4DF808EDFFF7E0FF94BF012000205DF808FB00BF4DF808EDFFF7CEFF41
:2006400094BF012000205DF808FB00BF4DF808EDFFF7C4FF34BF012000205DF808FB00BFB1
:200660004FEA410212F5001215D211D56FF47873B3EB625212D94FEAC12343F0004343EACD
:20068000505311F0004F23FA02F018BF404270474FF00000704750EA013005D111F00040D0
:2006A00008BF6FF0004070474FF00000704700BF53B94AB9002908BF00281CBF4FF0FF31F7
:2006C0004FF0FF3000F074B9ADF1080C6DE904CE00F006F8DDF804E0DDE9022304B07047B8
:2006E0002DE9F047089D04468E46002B4DD18A42944669D9B2FA82F252B101FA02F3C2F1F3
:20070000200120FA01F10CFA02FC41EA030E94404FEA1C48210CBEFBF8F61FFA8CF708FB88
:2007200016E341EA034306FB07F199420AD91CEB030306F1FF3080F01F81994240F21C81AB
:20074000023E63445B1AA4B2B3FBF8F008FB103344EA034400FB07F7A7420AD91CEB0404C2
:2007600000F1FF3380F00A81A74240F207816444023840EA0640E41B00261DB1D44000233C
:20078000C5E900433146BDE8F0878B4209D9002D00F0EF800026C5E9000130463146BDE833
:2007A000F087B3FA83F6002E4AD18B4202D3824200F2F980841A61EB030301209E46002D60
:2007C000E0D0C5E9004EDDE702B9FFDEB2FA82F2002A40F09280A1EB0C014FEA1C471FFA37
:2007E0008CFE0126200CB1FBF7F307FB131140EA01410EFB03F0884208D91CEB010103F150
:20080000FF3802D2884200F2CB804346091AA4B2B1FBF7F007FB101144EA01440EFB00FE94
:20082000A64508D91CEB040400F1FF3102D2A64500F2BB800846A4EB0E0440EA03409CE7F1
:20084000C6F12007B34022FA07FC4CEA030C20FA07F401FA06F31C43F9404FEA1C4900FA2A
:2008600006F3B1FBF9F8200C1FFA8CFE09FB181140EA014108FB0EF0884202FA06F20BD9D7
:200880001CEB010108F1FF3A80F08880884240F28580A8F102086144091AA4B2B1FBF9F04E
:2008A00009FB101144EA014100FB0EFE8E4508D91CEB010100F1FF346CD28E456AD902382D
:2008C000614440EA0840A0FB0294A1EB0E01A142C846A64656D353D05DB1B3EB080261EB0A
:2008E0000E0101FA07F722FA06F3F1401F43C5E9007100263146BDE8F087C2F12003D84082
:200900000CFA02FC21FA03F3914001434FEA1C471FFA8CFEB3FBF7F007FB10360B0C43EA4D
:20092000064300FB0EF69E4204FA02F408D91CEB030300F1FF382FD29E422DD902386344BD
:200940009B1B89B2B3FBF7F607FB163341EA034106FB0EF38B4208D91CEB010106F1FF386A
:2009600016D28B4214D9023E6144C91A46EA004638E72E46284605E70646E3E61846F8E659
:200980004B45A9D2B9EB020864EB0C0E0138A3E74646EAE7204694E74046D1E7D0467BE77E
:2009A000023B614432E7304609E76444023842E7704700BF10B50D4B03EB00100C4B1C685F
:2009C00004F1040C1434ACF1040301461A7811F801EB82EA0E0203F8012B6345F6D1043012
:2009E0000CF1040CA445EED110BD00BF9001002080020020C30903EB430303EBC30383EA42
:200A00004000C0B270470000084B1A6802F1040C0748002312F82310415C02F823100133E8
:200A2000042BF7D101326245F3D1704780020020885900080D4B1B685A7B597A59735979BE
:200A40005972597859715A709A78997A99709A729A79997B99719A73DA78D979D970D97AAE
:200A6000D971D97BD972DA73704700BF800200202DE9F04F8BB00E20FFF79CFF0D2309930D
:200A800006E0099B013B13F0FF03099300F08B80FFF7D0FFFFF7B8FF0998FFF78BFF474BCF
:200AA0001C6804F11003089394F8009094F80180A57894F803B04846FFF79CFF0190FFF7E4
:200AC00099FF0490FFF796FF82464046FFF792FF0746FFF78FFF0290FFF78CFF06462846EC
:200AE000FFF788FF0590FFF785FF0390FFF782FF00905846FFF77EFF0690FFF77BFF079022
:200B0000FFF778FF019A049982EA01038AEA03037B407340039A5340009A5340434088EA86
:200B200003036B408BEA030323708AEA0703029A53407340059A5340009F7B40079F7B40A9
:200B4000434089EA0303AC466B408BEA0303637081EA0A0373405340039A5340009A534093
:200B600006994B40434089EA030388EA03038BEA0303A370019A82EA0A0A029A82EA0A0A12
:200B800086EA0A06009D75404D407D40684089EA000988EA09088CEA0807E7700434089BDB
:200BA000A34281D16DE7FFF745FFFFF72DFF0020FFF700FF0BB0BDE8F08F00BF80020020F9
:200BC000431E074A1168013900F10F0C13F8012F11F8010F42401A706345F7D1704700BF5E
:200BE00088010020F0B5254B1968254A02F120041346087818704878587088789870C878FF
:200C0000D87004310433A342F3D108241D4D1E4E1DE0042F05D1695C15F80EE015F80CC0D6
:200C2000285C1F78794083F8201059788EEA010E83F821E099788CEA010C83F822C0D9781F
:200C4000484083F82300013404323C2C14D01346117F92F81DE092F81EC0D07F14F007077E
:200C6000D7D115F80E7015F80CE015F800C0685CE108715C7940D4E7F0BD00BF8C01002074
:200C800090010020885A00087C5900082DE9F04704460D461746089E02F00F0A23B11A46B0
:200CA000184B1A60FFF79EFF0EB1174B1E60D7B10026DFF85890DFF8508028686968AA689E
:200CC000EB6820606160A260E360C9F80040FFF7CFFE2046FFF774FFC8F80050103510340F
:200CE0001036B742E9D8BAF1000F01D1BDE8F08752462946204604F08FFC044B1C60FFF79F
:200D0000B7FEF3E78C0100208801002080020020BFF34F8F0549CA6802F4E062044B13435F
:200D2000CB60BFF34F8F00BFFDE700BF00ED00E00400FA050023044A1380044A1370044BA2
:200D400001221A70704700BF9202002090020020910200202DE9F04F93B0924699464C4B71
:200D600000221A804B4B1B78002B40F0848080460D46474CDFF838B1464E68E01DB940468B
:200D8000FFF722FAC5B202238DF804308DF805503E238DF806302A4641460DF1070004F006
:200DA0003BFC6A1DD1B240290DD84B1E01AA1344C5F13B0251FA82F201A90A44002103F873
:200DC000011F9342FBD1202205F148036B4403F8412C0D2203F8402C0A2203F83F2C41222D
:200DE00001A92D4803F026FCB9F1000F03D02B4B1B783C2B02D1FFF79DFF20E00DF103025B
:200E000011A84FF0FF33264912F801CF8CEA030C5FFA8CFC51F82C7087EA13238242F3D1E5
:200E2000DB43204A13600AE0012323801E4A137801331370412201A9174803F0FBFB23885C
:200E400001332380012000F0D7FE33789BB92388002B93D0BBF800209A42E5D3124B1A7847
:200E6000124B1B789A42EAD9012323800E4A002111703370E3E70023054A13800A4A1370D9
:200E8000044A1370504600F0B7FE13B0BDE8F08F9202002091020020E80A002006000020C0
:200EA00050060020480600209002002000000020020000200378352B02D14378312B03D0C2
:200EC0000B4B06221A7070478378302BF8D1C378322BF5D10379382BF2D14379362BEFD157
:200EE000044B01221A70024B08221A70704700BF4C0600203C060020034B00221A70034B63
:200F000009221A70704700BF3C0600204C060020B0B500AF084CE36F5B68084D2B6002F083
:200F2000BBF9074B2A681A6072B6E26F126882F308881B689847B0BD94020020540A0020A4
:200F400040060020014B06221A7070474C06002008B5FFF7DDFE0000014B01221A707047C6
:200F6000580A002008B501224FF48051014801F083F908BD0004024008B500224FF4805147
:200F8000014801F079F908BD0004024008B500220421024801F070F908BD00BF0004024028
:200FA00038B504460D46FFF7E7FF054B1B88AAB22146044802F0B1FAFFF7D4FF38BD00BFAF
:200FC00004000020900A00202DE9F84306460F4614461D46FFF7D0FFDFF82890DFF82880B1
:200FE000B9F80030BAB23146404602F096FAB9F80030AAB22146404602F081FCFFF7B2FFE5
:20100000BDE8F88304000020900A002010B5624B1B78012B1AD0022B48D0032B50D0042BF5
:2010200063D0052B6BD0072B73D0062B7BD0082B00F08380092B28D100231A461921574872
:20104000FFF788FE544B00221A701EE001215448FFF7A6FF534C0123224619465248FFF758
:20106000B3FF2378022B4FF001034FF0000207BF1F214E481C214E48FFF76CFE01214D48EC
:20108000FFF78EFF444B00221A7004214A4801F0F9F8322000F0B0FD484B1B78012B56D092
:2010A000474B93F98030002B72DB10BD0123002221214448FFF74EFE374B00221A70E4E7CE
:2010C0000123142226214048FFF744FE012314221D213E48FFF73EFE2F4B00221A704FF4F6
:2010E0007A7000F089FDFFF713FE0123002226213748FFF72FFE284B00221A70C5E701236B
:2011000000221F213348FFF725FE234B00221A70BBE700231A460E212F48FFF71BFE1E4B7C
:2011200000221A70B1E700231A4619212B48FFF711FE194B00221A70A7E700231A461E21D6
:201140002748FFF707FE144B00221A709DE7142233212448FFF7FEFD0123142226212248A4
:20116000FFF7F8FD0123142218212048FFF7F2FD0123142211461E48FFF7ECFD0123142254
:201180000F211C48FFF7E6FD0C4B00221A7087E7194801F0A0F888E74C060020B05C000892
:2011A00014000020380300200C000020885B0008A85B00081000002000040240580A002086
:2011C00094020020C85B0008EC5B0008145C0008245C0008445C0008645C0008745C000897
:2011E000905C0008D05C0008045D00082C5D0008485D0008605D0008840A002070B5094E31
:201200000125094C29463046FFF7CAFE2B46224629460648FFF7D8FE237813F0020FF1D0DE
:2012200070BD00BF14000020380300200C00002070B5094E0125094C29463046FFF7B0FE87
:201240002B46224629460648FFF7BEFE237813F0020FF1D170BD00BF10000020380300205E
:201260000C00002070B5074C074E01252B46224629463046FFF7A8FE237813F0010FF5D181
:2012800070BD00BF380300200C000020F0B583B00C46154602238DF80430C0F30F238DF80E
:2012A00005308DF8060000238DF80730FFF7DAFF0E4B1B7813F0020F14D0FFF75DFE0C4F30
:2012C0000C4E3B8804220DEB0201304602F025F93B88AAB22146304602F01FF9FFF742FE0E
:2012E00003B0F0BDFFF78AFFE7E700BF3803002004000020900A00202DE9F843164B1B7804
:20130000012B01D0BDE8F883441E00F13908134D134F144E01E04445F4D02B8814F8012FDB
:20132000FA5432680132326001339BB22B80B3F5807FF0D1DFF830904FF480723946B9F96F
:201340000000FFF7A3FF00232B80B9F800300133A9F80030DFE700BF3C0600204E060020E6
:201360003C030020340300203A030020F0B583B00C46154603238DF80430C0F30F238DF88C
:2013800005308DF8060000238DF80730FFF76AFFFFF7F2FD094F0A4E3B8804220DEB0201D6
:2013A000304602F0BAF83B88AAB22146304602F0A6FAFFF7D7FD03B0F0BD00BF0400002078
:2013C000900A0020F8B5204B1A68204B1B689A4203D21F4B05221A70F8BDFFF729FF1D4BC4
:2013E0004FF0FF321A60194B1B68FBB100251A4E184F06F1FF044FF48072314645F30F206F
:20140000FFF7B4FF3A68711E144811F8013F5340DBB250F8233083EA1222A142F5D13A60AE
:2014200005F58075094B1B68AB42E4D8094A1368DB4313600A4A12689342054B0CBF0322FB
:2014400004221A70C8E700BF340300208C0200204C060020840200203C030020500600207C
:201460008802002000B583B020238DF80430C0F30F138DF8053000018DF8060000238DF81B
:201480000730FFF7EFFE0B4B1B7813F0020F0ED0FFF772FD084B1B8804220DEB020107488C
:2014A00002F03BF8FFF75EFD03B05DF804FBFFF7A5FEEDE73803002004000020900A002009
:2014C0003A4B1B78012B00D0704710B5384A417883781B0443EA012301780B43C17843EAA9
:2014E0000163C2F88430417983791B0443EA012301790B43C17943EA01632E490B60417AC4
:20150000837A1B0443EA0123017A0B43C17A43EA016329490B60417B837B1B0443EA0123C2
:20152000017B0B43C17B43EA0163C2F88830417C837C1B0443EA0123017C0B43C17C43EA41
:201540000163D367017D01F00F0192F8814061F3030482F88140407D00F00F00E4B260F3E8
:20156000071482F88140154A934203D3012901D90A2803D9124B05221A7010BDFFF73EFEEC
:20158000002420B2FFF76EFF0134B4F5807FF8D100230C4A13600C4A13800C4A1380FFF798
:2015A0002DFE074B02221A70E7E700BF3C060020940200208C02002088020020008000087B
:2015C0004C060020340300204E0600203A030020027843781B0403EB0263827803EB0223BD
:2015E000C07818447047030E0B70030C4B70030A8B70C870704700002DE9F04FC3B08B46BA
:2016000091461A460193C3F3871A4FF0FF330360012A14D913464A46023B9BB209F1040447
:2016200004EB83041D4D016852F8043F4B40DBB255F8233083EA11230360A242F3D1036805
:20164000DB430360019D00271DE0403DADB2019C0134A4B2A5420AD93F2CF6D8A31902AAD8
:2016600002EB840159F82300FFF7BDFFF0E708EB0B004FF4807202A900B2FFF707FE013738
:20168000FBB2534507D85FFA87F8002DEFD0FEB2B6010024E0E743B0BDE8F08F5006002083
:2016A00008B5FFF7ABFDFF20FFF7DCFEFFF7A6FD0448052302464FF47F61FFF79DFFFFF7E0
:2016C000B7FD08BD0C03002008B50B4B1A680B4B1B689A4203D00A4B04221A7008BD094B27
:2016E00093F88020142161F3060283F88020FFF7D7FFFFF70DFB00BF88020020840200203A
:201700004C0600209402002008B5FFF777FDFF20FFF7A8FEFFF772FD074B93F88020642158
:2017200061F3060283F88020FFF7BAFFFFF780FD024B07221A7008BD940200204C06002023
:2017400008B50378303BDBB2032B12D0042B14D0052B16D0062B18D0082B19D0072B1AD0CF
:20176000092B1BD00C2B0F4B0CBF012206221A7008BD0230FFF7C0FDFAE70230FFF7A0FEC8
:20178000F6E70230FFF796FBF2E7FFF7B5FBEFE7FFF718FEECE7FFF797FFE9E7FFF7B4FF7A
:2017A000E6E700BF4C0600202DE9F04FC3B00646019192461D46C3F3871300934FF0FF33F6
:2017C00003604FF00009DFF880B025E01CB113E0403DADB22C460134A4B2A54215D93F2C79
:2017E000F6D802AB03EB8400FFF7F2FEE3194AF82300B8F1000FE9D032685040C0B25BF855
:20180000203083EA12233360E5E709F101095FFA89F3009A934210D85FFA89F8019B08EBDE
:2018200003004FF4807202A900B2FFF79FFD002DEBD04746BF010024D1E73368DB43336024
:2018400043B0BDE8F08F00BF5006002010B582B0174C052304F178024FF47F6101A8FFF789
:20186000A3FFA26F019B9A420ED0124B1B78042B01D902B010BD01330E4A1370322000F096
:20188000BBF9FFF7E3FFF4E70B4B1B88084AB2F882209A42EDD0064A92F8801041F0800195
:2018A00082F88010A2F88230FFF7FAFEE1E700BF9402002044060020080000202DE9F04FC0
:2018C00087B0934D2C1F05F57F7500200826914904E044F8042F0130AC420CD00246334681
:2018E00012F0010F14BF81EA52025208013B13F0FF03F5D1EDE7884B4FF0FF321A60874B80
:2019000000221A6002221A61FFF7A0FF844B93F98030002B13DB824B93F8803003F07F0356
:201920000A2B0FD0142B10D003F012FC01224FF400417C4800F0A0FC07B0BDE8F08F03F0AE
:20194000C7FAE8E7FFF7E4FAF6E70421764800F099FC00F04DFA0B2438B100F049FA013C1F
:2019600014F0FF04F8D1FFF7D3F904906C4CD4F8845094F88030642262F3060384F880309D
:20198000FFF78EFE94F8813003F00F0263498A601B09CB60E06F654988422CD3012A2AD9AB
:2019A0000A2B28D807EE905AFBEECC7A17EE900AFEF776FD41EC100B03F042FF51EC100B09
:2019C000FEF74EFE03B21C4605935949534800F011FB142000F010F9002C40F38480554BAE
:2019E000C3F1000BDDF81080002303934C4F524B03F1FF0664E0514B05221A7003F0A8FBB2
:201A000001224FF40041474800F036FC94E74C4800F061FC5AE00421434800F033FC4FF0CA
:201A20000108484C4FF4807221462846FFF79EFC454B0093454B4FF4807221463E48FFF7A4
:201A400025F9354B19683C4B581E1A46304C10F8013F4B40DBB254F8233083EA1121B042FE
:201A6000F5D12D4B19603A4C231D03F1FC052146507893781B0443EA002310780343D07835
:201A800043EA006341F8043F0432A942F0D10BF1040A4FF000090AEB0400F96F54F8042F26
:201AA0004B460144022000F0F3F9AC42F3D1039B013303930BF5807B1BB2059A9A4212DD06
:201AC000BDF90C5097F98030002BA0DBB8F1000FA1D008F101085FFA88F8049BB8F1140F9F
:201AE00088BF98469DE70C4A1368DB43136000F093F90028FBD1FFF749FA094BD3F888206B
:201B0000054B1B689A427FF479AFFFF701FA75E7500600202083B8ED840200202003002087
:201B200094020020000002400004024000800008500A00203C0500203C0400204C06002032
:201B4000840A00203C030020705D0008805D00083805002010B504460E4B18784FF47A7339
:201B6000B3FBF0F30C4A1068B0FBF3F000F0ACF868B90F2C01D901200AE0002221464FF0DB
:201B8000FF3000F05FF8054B1C60002000E0012010BD00BF15000020980000201800002031
:201BA00008B50B4B1A6842F400721A601A6842F480621A601A6842F480721A60032000F023
:201BC0002FF80020FFF7C6FF03F02EF9002008BD003C0240034A1168034B1B780B4413601D
:201BE000704700BF5C0A002015000020014B1868704700BF5C0A002038B50446FFF7F6FFCA
:201C00000546B4F1FF3F02D0044B1B781C44FFF7EDFF401BA042FAD338BD00BF15000020AD
:201C20000749CA68030203F4E06322F4E0621204120C134343F0BF6343F40033CB60704760
:201C400000ED00E000B5184BDB68C3F30223C3F1070CBCF1040F28BF4FF0040C03F1040EBE
:201C6000BEF1060F8CBF033B00234FF0FF3E0EFA0CFC21EA0C0199400EFA03F322EA030268
:201C80001143002809DB0901C9B200F1604000F5614080F800135DF804FB00F00F00090150
:201CA000C9B2024B1954F6E700ED00E014ED00E0420900F01F00012303FA00F0014B43F872
:201CC0002200704700E100E00138B0F1807F0BD24FF0E0235861054AF02182F8231000208C
:201CE000986107221A6170470120704700ED00E010B409490C6924F440740C610C6944F47A
:201D000040740C610C6944F001040C61026043605DF8044B704700BF003C0240074B1A6915
:201D200022F440721A611A6942F400721A611A6942F001021A610160704700BF003C024032
:201D4000074B1A6922F440721A611A6942F480721A611A6942F001021A610180704700BF1B
:201D6000003C0240204BDB6813F0100F07D01F4AD36943F01003D3611B4B1022DA601A4BE8
:201D8000DB6813F0200F07D0184AD36943F00803D361154B2022DA60134BDB6813F0400F18
:201DA00007D0124AD36943F00403D3610E4B4022DA600D4BDB6813F0800F07D00B4AD369BC
:201DC00043F00203D361084B8022DA60064BDB6813F0020F07D0054AD36943F02003D361D4
:201DE000014B0222DA607047003C0240600A0020074B1B69002B01DB00207047044B054A28
:201E00005A6002F188325A601869C00F704700BF003C024023016745034A136943F000434E
:201E200013610020704700BF003C024070B50446154B0022DA61FFF7D9FE0646134DEB6822
:201E400013F4803F0AD0B4F1FF3FF8D0CCB1FFF7CDFE801BA042F2D903200DE00B4BDB6808
:201E600013F0010F02D0094B0122DA60074BDB6813F0F20F01D1002070BDFFF773FF01208B
:201E8000FAE70320F8E700BF600A0020003C0240F8B515461F4A127E012A39D004460E46C5
:201EA0001F461C4B01221A764CF25030FFF7BEFF90B9ACB1012C21D0022C24D02A463B465B
:201EC0003046FFF715FF4CF25030FFF7AFFF124A136923F0010313610E4B00221A76F8BDFD
:201EE000EDB20D4B196921F4407119611A691A61196941F0010119613570E4E7A9B23046BB
:201F0000FFF71EFFDFE729463046FFF707FFDAE70220E4E7600A0020003C0240074B19697D
:201F200021F440711961196941F0040119611A6942EA002242F480321A617047003C0240C6
:201F400041B1012920D002290CBF4FF4007C4FF4407C01E04FF0000C0D4B196921F44071F5
:201F600019611A6942EA0C021A611A6922F0F8021A611A6942EAC00040F0020018611A6908
:201F800042F480321A6170474FF4807CE4E700BF003C0240164B1B6813F4007F10D0144B37
:201FA0001A6822F400721A601A6842F400621A601A6822F400621A601A6842F400721A60F1
:201FC0000B4B1B6813F4806F10D0094B1A6822F480621A601A6842F480521A601A6822F46E
:201FE00080521A601A6842F480621A60704700BF003C02402DE9F843264B1B7E012B45D0F1
:020000040800F2
:2020000004460F46234B01221A764CF25030FFF70DFF8146002833D14FF0FF333B602368B6
:20202000012B1BD0A568E3682B449D4226D24CF25038194E217C2846FFF782FF4046FFF7C0
:20204000F5FE336923F0FA0333618146A8B90135E368A2681344AB42ECD80FE06168207C3E
:20206000FFF75CFF4CF25030FFF7E0FE81460A4A136923F00403136100E03D60FFF78AFF5C
:20208000044B00221A764846BDE8F8834FF00209F9E700BF600A0020003C02402DE9F04F4B
:2020A00083B000236E4D6F4E6F4CDFF8C481DFF8C49148E0DF0800EB8707D7F820C003F025
:2020C00007024FEA820B0F2202FA0BF22CEA020C0A6902FA0BF242EA0C023A6242E0002758
:2020E00007FA0BF747EA0E07976022686FEA0A0C4F6817F4803F0CBF0CEA02024AEA020229
:20210000226062684F6817F4003F0CBF0CEA02024AEA02026260A2684F6817F4801F0CBF7D
:202120000CEA02024AEA0202A260E2684F6817F4001F0CBF0CEA02024AEA0202E2600133CD
:20214000102B00F08A804FF0010E0EFA03FE0A680EEA020A3EEA0202F1D14A6822F01002B9
:20216000022AA7D0D0F800B04FEA430C032202FA0CF2D7432BEA020B4A6802F0030202FABC
:202180000CF242EA0B0202604A6822F01002013A012A12D8826807EA020BCA6802FA0CF26C
:2021A00042EA0B028260426822EA0E0E4A68C2F300129A4042EA0E024260C26817408A688E
:2021C00002FA0CF23A43C2604A6812F0805FB6D0002201926A6C42F480426A646A6C02F430
:2021E00080420192019A23F0030202F1804202F59C32D2F808E003F003074FEA870B0F27AD
:2022000007FA0BF72EEA070EB0423FF468AF404517D0484517D0154FB84216D007F580674B
:20222000B84214D007F58067B84212D007F58067B84210D007F58067B8420CBF072708273F
:202240004EE701274CE702274AE7032748E7042746E7052744E7062742E703B0BDE8F08F5F
:202260000038024000000240003C0140000C024000040240000802400AB1816170470904E6
:2022800081617047436959404161704708B338B5044603684CF6CC421A60036845F2555297
:2022A0001A60036842685A60036882689A60FFF79DFC05462368DA6832B1FFF797FC401B18
:2022C0003028F7D9032003E04AF6AA221A60002038BD0120704703684AF6AA221A6000204C
:2022E000704700286ED030B58BB00446032380F8B93302F049FF206801F01AFCA4465CF8C6
:20230000105BEE46BCE80F00AEE80F00BCE80F00AEE80F009CE803008EE80300231D0ECB55
:20232000284601F0C1FB0021206801F007FC2346224600214FF0010C084682F839C082F86C
:202340003810D18782F83B0010645064D06401311C320F29F1D100210A4683F8F92183F8D1
:20236000F811D98783F8FB21C3F80022C3F80422C3F80C22206801F1400C00EB8C004260D7
:2023800001311C330F29E8D1A4465CF8105BEE46BCE80F00AEE80F00BCE80F00AEE80F003E
:2023A0009CE803008EE80300231D0ECB284601F005FC012384F8B933206801F0E1FF00209F
:2023C0000BB030BD0120704790F8B833012B0ED010B50446012380F8B833006801F0C4FF4E
:2023E000206801F09FFB002084F8B80310BD0220704700002DE9F04F89B004460768384608
:2024000001F0FAFF10B109B0BDE8F08F8246206801F0C2FF0028F6D0206801F0BDFF10F00F
:20242000020F04D02268536903F002035361206801F0B2FF10F4002B74D1206801F0ACFF03
:2024400010F4802F40F0C880206801F0A5FF0028C0F28281206801F09FFF10F4006F0AD0F3
:20246000D7F8083813F0010F40F085812268536903F400635361206801F08EFF10F4805FC7
:2024800040F07D81206801F087FF10F4005F40F0BC81206801F080FF10F0100F14D02268BA
:2024A000936923F0100393613D6A05F00F06C5F34343022B00F03982062B00F055822268BD
:2024C000936943F010039361206801F065FF10F0080F40F05B82206801F05EFF10F4801F4C
:2024E00040F05D82206801F057FF10F4001F40F06182206801F050FF10F0804F40F065821A
:20250000206801F049FF10F0040F3FF47CAF23685D6815F0040F40F06182226853682B435B
:20252000536070E7206801F03BFF0546002851D007F53066A046D346029722E0D8F800222C
:202540003369C3F31203D31AC8F81032D8F804321344C8F8043226E004F56F720121206848
:2025600001F06AFF17F0080F2CD117F0100F1CBF1023B3600BF1010B203608F11C086D08AF
:2025800026D015F0010FF5D05FFA8BF94946206801F016FF074610F0010FE3D00123B3602A
:2025A0002369012BCAD04946204602F029FE2369012BD7D1BBF1000FD4D1D4F80C32002BC6
:2025C000D0D1C9E7204602F013FE0823B360CCE7029F32E7834630E7206801F0E9FE81468F
:2025E000002800F0B780A04607F51063D3460397CDF814A01F462CE0D8F84430D8F8402026
:202600001344C8F8443041E004F56F720121206801F012FF15F0080F1CBF0823BB6015F046
:20262000100F1CBF1023BB6015F0400F1CBF4023BB6015F0020F1CBF0223BB6015F0800FE0
:2026400032D10BF1010B08F11C0820375FEA59097CD019F0010FF4D05FFA8BFA514620682A
:2026600001F0B8FE054610F0010FD3D0039B03F50062D3F83438012101FA0BF123EA01035C
:2026800053630123BB602369012BB5D05146204602F0C2FD2369012BBCD1BBF1000FB9D1D0
:2026A000E36C002BB6D1AFE7216804914646D8F84C30D8F850209B1AD8F84020934228BFAC
:2026C0001346029301F5106202EB4B1211469269033392B2B2EB930F2AD9CDF818B0079721
:2026E000049F8B46336DF56C9D421ED9ED1A336C9D4228BF1D460295237C0093ABB2524602
:20270000716C384601F083FC736C2B447364336D2B443365DBF8183003359BB2B3EB950F40
:20272000E0D8DDF818B0079F02E0DDF818B0079F029B002B85D1049BD3F83428012101FA78
:202740000BF122EA0102C3F834287AE7039FDDF814A079E6834677E6D7F8043823F0010324
:20276000C7F80438204602F08FFD2268536903F0004353616EE6204602F06EFD76E607F5DB
:2027800000656B6823F001036B601021206801F0EBF963685BB107F51063FF229A60C3F875
:2027A00008220AF1010A203361685145F6D84FF0FF33AB61EB6943F00113EB61236BDBB1EB
:2027C000D5F8843043F00B03C5F884306B6C43F00B036B64D7F8003823F4FE63C7F8003869
:2027E00004F56F72217C206801F026FE2268536903F48053536145E66B6943F00B036B61F5
:202800002B6943F00B032B61E4E7206801F0F8FD2268D36823F47053D360206801F07EFA5B
:2028200090B90023E3604FF4007363612268D36843F41053D360204602F0FFFC2268536944
:2028400003F40053536124E60323E3604023636100F01CFD634B0344634A934205D82268F9
:20286000D36843F47053D360E5E7604B0344604A934205D82268D36843F46053D360DAE733
:20288000A0F57403A3F510535A4A934205D82268D36843F45053D360CDE7A0F18373A3F536
:2028A000E743554A934205D22268D36843F44053D360C0E7514B0344514A934205D8226880
:2028C000D36843F43053D360B5E74E4B03444E4A934205D22268D36843F42053D360AAE7DD
:2028E0004A4B03444A4A934205D22268D36843F41053D3609FE7A0F1B773A3F55853454A17
:20290000934205D22268D36843F40053D36092E7414B0344414A93422268D36834BF43F4EE
:20292000E05343F4C053D36085E747F6F0731D423FF4C5AD4FEA151AC6EBC60804EB880871
:20294000C5F30A12D8F80412384601F08FFCCAF30A02D8F804321344C8F80432D8F8103295
:202960001A44C8F81022AAE5082204F56F71384601F07CFCC6EBC60104EB8101C5F30A13D0
:20298000D1F810221344C1F8103298E5204602F04EFC2268536903F0080353619BE55FFAFA
:2029A0008BF1204602F07CFC2268536903F48013536197E55FFA8BF1204602F06BFC2268AD
:2029C000536903F40013536193E5204602F06EFC2268536903F08043536191E5204602F0C5
:2029E0006BFC9AE5405327FFFF340C00401E1BFF3F420F007F4F120020D6130060B6E5FE0F
:202A00005FE3160000D3CEFE40771B00C05BB3FEC091210020753800E05459FEE09C41009A
:202A200090F8B833012B0BD010B50446012380F8B833006801F088FC002084F8B80310BD85
:202A40000220704710B5044611F0800F27D101F07F0CCCEBCC0100EB810101F5FC71CCEB7F
:202A6000CC0004EB800080F8F8C14FF0000E80F8F9E1C0F8002280F8FB31022B04BF0023BA
:202A80000B7194F8B833012B20D0012384F8B833206801F062F9002084F8B80310BD01F0B3
:202AA0007F0CCCEBCC0100EB81013831CCEBCC0004EB800080F838C04FF0010E80F839E0F0
:202AC000026480F83B30A0F83EC0D6E70220E5E710B504460A4648B2002801F07F03C3EBCA
:202AE000C30304EB8303B4BF03F1380103F5FC7102F07F020A70C00F487094F8B833012B7F
:202B000009D0012384F8B833206801F071F9002084F8B80310BD0220FCE710B501F07F040C
:202B2000C4EBC40100EB810101F5FC71C4EBC40C00EB8C0CCCF80422CCF80C320023CCF87C
:202B400010328CF8F9318CF8F8410369012B06D064B9DAB2006801F0B7F9002010BDC4EB0C
:202B6000C40C00EB8C0CCCF80822F1E7DAB2006801F066FAF1E710B501F07F04C4EBC40172
:202B800000EB81013831C4EBC40C00EB8C0CCCF84420CCF84C300023CCF8503001238CF8E6
:202BA00039308CF838400369012B06D064B9DAB2006801F089F9002010BDC4EBC40C00EB67
:202BC0008C0CCCF84820F1E7DAB2006801F038FAF1E738B504460A4648B200281BDBC1EB1F
:202BE000C10304EB830303F5FC7101238B7002F07F050D70C00F487094F8B833012B1AD011
:202C0000012384F8B833206801F049FB65B1002084F8B80338BD01F07F03C3EBC30304EB34
:202C2000830303F13801E0E704F56F72217C206801F002FCEBE70220ECE710B504460A4606
:202C400048B200281ADBC1EBC10304EB830303F5FC7100238B7002F07F020A70C00F487081
:202C600094F8B833012B12D0012384F8B833206801F03DFB002084F8B80310BD01F07F03FC
:202C8000C3EBC30304EB830303F13801E1E70220F3E710B40468606A31B940EA0240A06208
:202CA00000205DF8044B7047A36A00EB134001F1FF3CBCF1000F0CDD00231946403104EB9A
:202CC0008101496800EB11400133DBB219466345F4DB40EA02400CF1400C04EB8C046060FA
:202CE000DEE703685962002070470000002800F0BA812DE9F04182B00446036813F0010F7E
:202D00003BD09F4B9B6803F00C03042B2CD09C4B9B6803F00C03082B21D06368B3F5803F4C
:202D20004FD0B3F5A02F52D0954B1A6822F480321A601A6822F480221A606368002B50D06D
:202D4000FEF754FF05468E4E336813F4003F14D1FEF74CFF401B6428F6D903208AE1884BE7
:202D60005B6813F4800FD8D0854B1B6813F4003F03D06368002B00F07881236813F0020F68
:202D800054D07F4B9B6813F00C0F3ED07C4B9B6803F00C03082B33D0E368002B68D0794BA2
:202DA00001221A60FEF722FF0546754E336813F0020F54D1FEF71AFF401B0228F6D90320F9
:202DC00058E16F4A136843F480331360B5E76C4B1A6842F480221A601A6842F480321A601E
:202DE000ABE7FEF703FF0546654E336813F4003FC3D0FEF7FBFE401B6428F6D9032039E1F7
:202E00005F4B5B6813F4800FC6D15D4B1B6813F0020F03D0E368012B40F02981584A136898
:202E2000216923F0F80343EAC1031360236813F0080F42D063696BB3524B0122C3F8802ECC
:202E4000FEF7D4FE05464E4E736F13F0020F34D1FEF7CCFE401B0228F6D903200AE1484A16
:202E60001368216923F0F80343EAC1031360DDE7444B00221A60FEF7B9FE0546404E3368CC
:202E800013F0020FD2D0FEF7B1FE401B0228F6D90320EFE03B4B0022C3F8802EFEF7A6FEE8
:202EA0000546374E736F13F0020F06D0FEF79EFE401B0228F6D90320DCE0236813F0040F11
:202EC00076D02F4B1B6C13F0805F33D1002301932B4B1A6C42F080521A641B6C03F0805343
:202EE0000193019B0125284B1B6813F4807F23D0A368012B34D0052B38D0214B1A6F22F013
:202F000001021A671A6F22F004021A67A368002B3CD0FEF76BFE0646194F41F288383B6F1A
:202F200013F0020F43D1FEF761FE801B4045F6D903209FE00025D6E7134A136843F48073A0
:202F40001360FEF753FE06460F4F3B6813F4807FCED1FEF74BFE801B0228F6D9032089E068
:202F6000074A136F43F001031367CFE7044B1A6F42F004021A671A6F42F001021A67C5E79B
:202F8000003802400000474200700040FEF72EFE06463B4F41F288383B6F13F0020F06D000
:202FA000FEF724FE801B4045F6D9032062E0E5B9A369002B5DD0324A926802F00C02082AFC
:202FC0005BD0022B17D02F4B00221A66FEF70EFE04462B4D2B6813F0007F42D0FEF706FEB3
:202FE000001B0228F6D9032044E0254A136C23F080531364DCE7234B00221A66FEF7F6FD70
:2030000005461F4E336813F0007F06D0FEF7EEFD401B0228F6D903202CE0E369226A134374
:20302000626A43EA8213E26A43EA0263A26A5208013A43EA0243124A5360124B01221A6602
:20304000FEF7D4FD04460E4D2B6813F0007F06D1FEF7CCFD001B0228F6D903200AE000201A
:2030600008E0002006E001207047012002E0012000E0002002B0BDE8F0810120FAE700BFDD
:20308000003802400000474208B5254B9B6803F00C03042B3FD0082B3FD1214B5A6802F05A
:2030A0003F025B6813F4800F12D01D4B5968C1F388111C480023A1FB0001FDF7F9FA184BB0
:2030C0005B68C3F3014301335B00B0FBF3F025E0134B5968C1F3881C4FEA4C11B1EB0C005C
:2030E0006EEB0E0E4FEA8E1343EA90638101091A63EB0E03DB0043EA5173C90011EB0C0CB4
:2031000043F10003990200234FEA8C2041EA9C51FDF7CEFAD3E7034800E0034808BD00BF4D
:2031200000380240001BB7000024F400002800F09C802DE9F0410D460446504B1B6803F002
:203140000F038B4208D2CBB24C4A1370136803F00F038B4240F08B80236813F0020F17D012
:2031600013F0040F04D0464A936843F4E0539360236813F0080F04D0414A936843F46043A4
:2031800093603F4A936823F0F003A1680B439360236813F0010F32D06268012A21D0931E31
:2031A000012B25D9364B1B6813F0020F61D034498B6823F0030313438B60FEF717FD06467D
:2031C0002F4F41F28838BB6803F00C036268B3EB820F14D0FEF70AFD801B4045F3D9032071
:2031E00041E0274B1B6813F4003FE0D101203AE0234B1B6813F0007FD9D1012033E01F4BCC
:203200001B6803F00F03AB4207D9EAB21B4B1A701B6803F00F03AB422DD1236813F0040FB9
:2032200006D0174A936823F4E053E1680B439360236813F0080F07D0114A9368216923F415
:20324000604343EAC1039360FFF71EFF0C4B9B68C3F303130B4AD35CD8400B4B1860002024
:20326000FEF778FC0020BDE8F081012070470120F9E70120F7E70120F5E700BF003C02409D
:2032800000380240A05D000898000020014B1868704700BF9800002070B5FEF7A7FC0446F6
:2032A000454A136843F00103136015462B6813F0020F06D1FEF79AFC001B0228F6D90320BF
:2032C00070BD3D4D2B6843F080032B60FEF78EFC04460023AB6041F28836AB6813F00C0F4A
:2032E00006D0FEF783FC001BB042F6D90320E7E7FEF77CFC0446304A136823F4502313600E
:2033000015462B6813F4003F06D0FEF76FFC001B6428F6D90320D3E7FEF768FC0446264ADD
:20332000136823F08073136015462B6813F0007F06D0FEF75BFC001B0228F6D90320BFE72A
:20334000FEF754FC04461C4A136823F08063136015462B6813F0006F06D0FEF747FC001B0B
:203360000228F6D90320ABE7134B144A5A60144AC3F88420DA6822F4F852DA60DA6822F438
:203380000052DA60DA6842F41F02DA60DA6842F40012DA605A6F22F001025A675A6F42F070
:2033A00080725A67074B084A1A600020FEF7D2FB003818BF012083E7003802401030000402
:2033C00000300020980000200024F4002DE9F04180460F4616461D46D8F800309C6837EA87
:2033E00004020CBF4FF0010C4FF0000C66453FD0B5F1FF3FF2D02DB1FEF7F8FB069BC01AC4
:20340000A842E9D3D8F80020536823F0E0035360D8F80430B3F5827F0CD0D8F82830B3F559
:20342000005F16D0012388F85130002388F8503003201EE0D8F80830B3F5004F02D0B3F565
:20344000806FEAD1D8F80020136823F040031360E3E7D8F80020136823F400531B041B0CA9
:203460001360D8F80020136843F400531360D9E70020BDE8F08110B582B004460B46009257
:2034800000228021FFF7A2FF08B902B010BD636D43F0200363650320F7E700283BD010B5AB
:2034A00004460023836290F85130002B2ED0022384F851302268136823F04003136022680E
:2034C0006368A1680B43E1680B4321690B4361690B43E1690B43216A0B43A16A0B43A1696F
:2034E00001F400710B4313602268638B03F00403616A0B4353602268D36923F40063D361F3
:2035000000206065012384F8513010BD80F8503001F0A6FCCBE7012070472DE9F04385B045
:203520001D4690F85030012B00F0CE8004460E469146012380F85030FEF758FB804694F88B
:203540005170FFB2012F40F0B080002E00F0AE80B9F1000F00F0AA80032384F85130002304
:2035600063652663A4F83490A4F83690A363A387E38763642364A368B3F5004F2AD02368C9
:203580001A6812F0400F03D11A6842F040021A60E368B3F5006F23D063681BB1E38E9BB26A
:2035A000012B07D1236816F8012B1A73E38E013B9BB2E386E38E9BB2002B4AD1CDF8008009
:2035C0002B46012202212046FFF700FF002855D003276BE02268136843F480431360CEE7F0
:2035E00063681BB1E38E9BB2012B07D1236836F8022BDA60E38E013B9BB2E386E38E9BB231
:203600004BB9DBE7002D5BD0B5F1FF3F10D1E38E9BB2002BD2D023689A6812F0020FF1D0DB
:2036200036F8022BDA60E38E013B9BB2E386EEE7FEF7DCFAA0EB0800A842E8D3032735E07B
:20364000002D3FD0B5F1FF3F10D1E28E92B2002AB4D023689A6812F0020FF1D016F8012B6C
:203660001A73E38E013B9BB2E386EEE7FEF7BEFAA0EB0800A842E8D3032717E04246294688
:203680002046FFF7F8FE68B9A36833B903932368DA6803929B680393039B676D003F18BFA7
:2036A000012703E02023636500E00227012384F85130002384F85030384605B0BDE8F08360
:2036C0000327F3E70327F1E70227F5E72DE9F04784B099460C9F90F85030012B00F00D8122
:2036E00004460E461546012380F85030FEF77EFA804694F85130DBB2012B0BD06268B2F570
:20370000827F40F0E680A268002A40F0EC80042B40F0EB80002E00F0EA80002D00F0E9806A
:20372000B9F1000F00F0E78094F85130DBB2012B04BF052384F8513000236365A563A4F83C
:203740003E90A4F83C902663A4F83690A4F834902364636423681A6812F0400F03D11A68E6
:2037600042F040021A60E368B3F5006F12D063681BB1E38E9BB2012B07D1236816F8012BF9
:203780001A73E38E013B9BB2E3864FF001094FF0000A5CE063681BB1E38E9BB2012B07D112
:2037A000236836F8022BDA60E38E013B9BB2E3864FF001094FF0000A12E0E38F9BB263B12F
:2037C0002268936813F0010307D0D26825F8022BE28F013A92B2E2879946B7F1FF3F1BD1F8
:2037E000E38E9BB21BB9E38F9BB2002B52D0B9F1000FE2D0E38E9BB2002BDED023689A689C
:2038000012F0020FD9D036F8022BDA60E38E013B9BB2E386D146D0E7FEF7E8F9A0EB0800BD
:20382000B842DDD3032055E0E38F9BB263B12268936813F0010307D0D26805F8012BE18F7D
:20384000013989B2E1879946B7F1FF3F1AD1E38E9BB213B9E38F9BB2E3B1B9F1000FE3D092
:20386000E38E9BB2002BDFD023689A6812F0020FDAD016F8012B1A73E38E013B9BB2E3863C
:20388000D146D1E7FEF7B2F9A0EB0800B842DED303201FE0CDF800803B46012202212046E7
:2038A000FFF794FD08B1032014E0424639462046FFF7E1FD48B9A36863B903932368DA68E5
:2038C00003929B680393039B04E020236365012000E00220012384F85130002384F85030CA
:2038E00004B0BDE8F0870220F4E70220F2E70120F0E70120EEE70120ECE70220F0E72DE90F
:20390000F04182B004460E4690461D464368B3F5827F42D094F85030012B00F0A980012392
:2039200084F85030FEF762F9074694F85100C0B2012840F08F80002E00F08D80B8F1000F54
:2039400000F08980042384F8513000236365A663A4F83C80A4F83E802363A386E386236405
:203960006364A368B3F5004F23D023681A6812F0400F03D11A6842F040021A60E368F3B1FA
:20398000E38F9BB2002B44D16368B3F5827F54D0606D003818BF01205DE08368002BB9D1B6
:2039A000042380F85130009513460A46FFF78EFE57E02268136823F480431360D5E7E38F70
:2039C0009BB24BB9E0E7002D4ED0B5F1FF3F10D1E38F9BB2002BD7D023689A6812F0010F8F
:2039E000F1D01B7B06F8013BE38F013B9BB2E387EEE7FEF7FBF8C01BA842E9D303202AE066
:203A0000002D33D0B5F1FF3F10D1E38F9BB2002BBAD023689A6812F0010FF1D0DB6826F87C
:203A2000023BE38F013B9BB2E387EEE7FEF7DEF8C01BA842E9D303200DE0A368B3F5004FB1
:203A400002D0B3F5806FA3D12268136823F0400313609DE70220012384F85130002384F855
:203A6000503002B0BDE8F0810320F4E70320F2E70220F6E70B4B0269002A03DB013BFAD135
:203A800003207047036943F001030361054B026912F0010F03D0013BF9D1032070470020A5
:203AA000704700BF400D030084B010B5044603A880E80E00089B012B20D1A36B23F4803344
:203AC000A363E36823F4840323F04003E360E36823F44013E3600F9B012B0AD02046FFF75A
:203AE000C9FF069B012B14D00020BDE8104004B07047E36843F48013E360EFE7E36843F021
:203B00004003E3602046FFF7B5FF4FF48033A363E7E7A36843F00603A360A36843F020039A
:203B2000A360E1E7836843F00103836000207047836823F0010383600020704708B5C3683A
:203B400023F0C043C360012905D041B9C36843F08043C36003E0C36843F00053C3603220E6
:203B6000FEF74AF8002008BD890141F020010161054B026912F0200F03D0013BF9D1032003
:203B800070470020704700BF400D030010230361054B026912F0100F03D0013BF9D1032019
:203BA00070470020704700BF400D0300D0F800381943C0F8001800207047000084B02DE91B
:203BC0007847044609A880E80E000D46DDF83090DDF84C80B8F1000F16D1A36B43F4001335
:203BE000A3630023C4F8003E04F50066D4F80038C4F800380E9B012B10D10B9B4BB90021CA
:203C00002046FFF7D3FF0DE0A36B43F40023A363E7E701212046FFF7C9FF03E0032120469A
:203C2000FFF7C4FF10212046FFF79EFF2046FFF7ADFF0023336173614FF0FF32B261F36137
:203C40006DB304F51063002294464FF0904A4FF0FF0E18680028B4BFC3F800A0C3F800C086
:203C6000C3F810C0C3F808E0013220339542F0D104F53063002294464FF0904A4FF0FF0E0B
:203C800018680028B4BFC3F800A0C3F800C0C3F810C0C3F808E0013220339542F0D133694B
:203CA00023F480733361B9F1010F1DD00023A3616FF080436361B9F1000F03D1A36943F0E6
:203CC0001003A361A269134B1343A3610F9B1BB1A36943F00803A361B8F1010F13D000208A
:203CE000BDE8784704B070470B4B3363336B43F4803343F003033363336B0023A3616FF08E
:203D000080436361DEE7A36943F0804343F00403A361E4E700383C8000018000D0F80838CF
:203D200000F5006013F0060F11D0836803F00603022B0ED0836803F00603062B0BD0836865
:203D400003F00603042B14BF00200220704700207047032070470320704730B44B78012B0E
:203D600022D0D0F81C4891F800C04FF4803303FA0CF32343C0F81C380A78520100F530601E
:203D8000135813F4004F0CD114588B68C3F30A032343C97843EA814343F0805343F400434B
:203DA0001350002030BC7047D0F81C4891F800C003FA0CF39BB22343C0F81C3891F800C064
:203DC0004FEA4C1400F51060235813F4004FE8D125588A68C2F30A032B43CA7843EA824388
:203DE00043EA8C5343F0805343F400432350D8E738B505460C464B78012B22D000F5306C09
:203E00000B785B0153F80C2022F4004243F80C200B785B014FF0006243F80C200B785B01C7
:203E20004FF0804243F80C200B780CEB431C254BDCF8082012F0100F31D0013BF8D103208B
:203E40003EE000F5106123785B015A5822F400425A5023785B014FF000625A5023785B01FA
:203E60004FF080425A50237801EB4311154B8A6812F0804F03D0013BF9D1032020E010216C
:203E80002846FFF771FED5F81C28217801238B409BB222EA0303C5F81C38002010E0D5F869
:203EA000043843F48063C5F80438D5F81C3821784FF480328A4023EA0203C5F81C380020F7
:203EC00038BD00BF400D030030B44B78012B39D000F5306091F800C000EB4C1CDCF81030CD
:203EE000DB0CDB04CCF8103091F800C000EB4C1CDCF8103023F0FF5323F4C013CCF81030F5
:203F00004B690BB18B684B610B7800EB43131C6944F400241C6191F800C000EB4C1CDCF800
:203F200010408B68C3F312032343CCF81030012A67D00B785B011A5842F004421A50002054
:203F400030BC70474B6973BB00F510630D7803EB45152C6924F0FF5424F4C0142C610C78AE
:203F600003EB4414256945F4002525610C7803EB44131C69E40CE4041C6100F510640B78FA
:203F80005B011D5945F004451D51012A33D04B69002BD4D0D0F83428097801238B401343C8
:203FA000C0F83438CBE700F510630D7803EB45152C69E40CE4042C610D7803EB45152C699A
:203FC00024F0FF5424F4C0142C618C684D69A54288BF4C610C7803EB4414256945F40025C6
:203FE00025610C7803EB44131D694C69C4F312042C431C61C1E70B7804EB43140B696361D5
:020000040800F2
:204000009DE70B7800EB4313CA685A6191E710B49DF804407CB903334FEA930C032B0AD902
:2040200000F5805000EB0232002351F8040B106001339C45F9D800205DF8044B7047000050
:2040400070B582B04B78012B3DD000F5306C91F800E00CEB4E1EDEF81030DB0CDB04CEF80E
:20406000103091F800E00CEB4E1EDEF8103023F0FF5323F4C013CEF810304B69002B40F0BA
:20408000BE800C780CEB441425698B68C3F312032B4323610B780CEB43131C6944F4002420
:2040A0001C61012A00F0C980CB78012B00F0CB800B785B0153F80C2042F0044243F80C2040
:2040C000002002B070BD4B6973BB00F510630D7803EB45152C6924F0FF5424F4C0142C6155
:2040E0000C7803EB4414256945F4002525610C7803EB44131C69E40CE4041C61012A5FD087
:20410000CB78012B42D1D0F8083813F4807F0B784FEA431300F510655C590CBF44F000548B
:2041200044F080545C5155E000F510640D7804EB45152B69DB0CDB042B610D7804EB4515AA
:204140002B6923F0FF5323F4C0132B6191F800C004EB4C1CDCF810608D684B692B44013BB8
:20416000B3FBF5F3404D05EAC3433343CCF810300D7804EB45152E694B69C3F31203334353
:204180002B61CB78012B0CD0012A19D04B690BB3D0F834580E780123B3402B43C0F834383F
:2041A00015E00B7804EB43131D6925F0C0451D610B7804EB4314236943F0005323619DE741
:2041C0000C7800F5106303EB44130C695C61CB78012B98D00B785B0100F5106C53F80C40BE
:2041E00044F0044443F80C40CB78012B7FF468AF00928B8A0A78C968FFF709FF60E78C6830
:204200002344013BB3FBF4F391F800E00CEB4E1EDEF81050144C04EAC3442C43CEF810408A
:204220000C780CEB441426699BB28D6805FB03F3C3F312033343236133E70B780CEB431335
:20424000CA685A6130E7D0F8083813F4807F0B784FEA431353F80C200CBF42F0005242F042
:20426000805243F80C2023E70000F81F30B5D51C032D12D9AC088C46002300F5805EDEF8A1
:2042800000204CF8042B01339C42F8D825F00300032D98BF0420084430BD0846FCE74B78B9
:2042A000012B12D000F530600B785B011A58002A03DB1A5822F080421A500B785B011A5811
:2042C00042F400121A500020704700F510600B785B011A58002A03DB1A5822F080421A50E7
:2042E0000B785B011A5842F400121A50EBE74B78012B0ED000F530600B785B011A5822F430
:2043000000121A50CB78023BDBB2012B15D90020704700F510600B785B011A5822F4001245
:204320001A50CB78023BDBB2012BF0D80B785B011A5842F080521A50E9E70B785B011A5832
:2043400042F080521A50E2E7D0F8003823F4FE63C0F80038D0F80038090101F4FE61194304
:20436000C0F800180020704708B5D0F8043823F00203C0F804380320FDF73EFC002008BD93
:2043800008B5D0F8043843F00203C0F804380320FDF732FC002008BD42698069104070476B
:2043A000D0F8183800F50060C0691840000C7047D0F8183800F50060C069184080B2704775
:2043C00000F5306303EB41139A6800F5006040691040704710B4D0F81048D0F8343800EB09
:2043E000411000F510608068CB40DB01DBB2234318405DF8044B7047406900F00100704741
:20440000D0F8003923F4FF6323F00703C0F8003900F500639A6802F00602042A05D05A68FB
:2044200042F480725A6000207047D0F8002942F00302C0F80029F2E710B40024C0F8104BE6
:20444000D0F8104B44F40024C0F8104BD0F8104B44F01804C0F8104BD0F8104B44F0C044E9
:20446000C0F8104B012903D000205DF8044B7047C0F8142B4FF08023C0F8003BF4E700000A
:20448000292303800048704754000020D0F81832002083F85400704710B5D0F81842236DAB
:2044A000012B01D0002010BDD0F81C32DB6861782078984700232365F4E700000A23038033
:2044C000004870478C00002038B50446D0F81852D0F81C32DB6869782878984741232A463B
:2044E0000121204600F090FF002038BD38B5D0F818520C7814F060042FD0202C56D14B7860
:20450000023B092B25D8DFE803F0150924242424241C10058B786B64002448E0012205F139
:20452000440100F03FFC002441E04B881B0AAB6400243CE0012205F1480100F033FC0024DA
:2045400035E001232B658A79294600F040FC00242DE000F0E3F9022429E04B780A2B1CD0E4
:204560000B2B20D0062B22D14B881B0A222B06D0212B0CD000210A4600F014FC17E0CA88F4
:20458000272A28BF2722D0F81C321968F4E7CA88092A28BF09220749EEE7012205F14C0106
:2045A00000F000FC03E08B78EB6400E00024204638BD00BF8000002010B50446812100F07B
:2045C000D2FE0121204600F0CEFED4F8183253B1D4F81C329B689847D4F8180201F014F8CE
:2045E0000023C4F81832002010BD70B5044640230322812100F0A7FE402303220121204667
:2046000000F0A1FE582000F0F7FFC4F8180278B10546002680F85460D4F81C325B68984755
:2046200041232A460121204600F0EEFE304670BD0120FCE790F8FC31032B01D00020704710
:2046400010B5D0F8183293F854400CB1002010BD012483F8544013460A46812100F0C7FE86
:20466000F4E719B1C0F81C12002070470220704798B108B50346D0F8140210B10020C3F836
:20468000140209B1C3F81012012183F8FC111A70184600F017FE002008BD0220704719B14E
:2046A000C0F81412002070470220704708B500F03DFE002008BD08B5D0F814322BB11B6875
:2046C0009847002818BF022008BD0220FCE708B5D0F814325B689847002008BD38B5044687
:2046E00000F50275284600F005F90123C4F8F431B4F80E32C4F8F83194F8081201F01F0363
:20470000012B0ED0022B11D02BB101F08001204600F036FE03E02946204600F009F90020DF
:2047200038BD2946204600F07BFAF8E72946204600F091FAF3E710B5044629BB1346D0F82D
:20474000F421032A01D0002010BDD0F80C11D0F8102191420BD8D0F814321B691BB190F8DF
:20476000FC21032A0ED0204600F048FBEBE7891AC0F80C118A4228BF0A4692B2194600F098
:2047800035FBE0E79847EEE70A46D0F814329B69002BD8D090F8FC110329D4D1114698479D
:2047A000D1E710B50446002947D11346D0F8F421022A05D094F80032012B3AD0002010BDD9
:2047C000C169026A914217D88169B1FBF2F302FB13132BB98A4203D8D0F8F831994218D3A1
:2047E000D4F81432DB681BB194F8FC21032A1DD0204600F00EFBDDE78A1AC26192B2194648
:2048000000F0DDFA00231A461946204600F0FCFDD0E70022114600F0D2FA0021C4F8F811CE
:204820000B460A46204600F0EFFDC3E720469847DEE7002384F80032C0E70A46D0F814320B
:204840005B69002BBAD090F8FC110329B6D111469847B3E738B5044640230022114600F0C4
:2048600072FD4025C4F810512B4600228021204600F069FD2562012384F8FC31D4F81832ED
:204880002BB1D4F814325B68217920469847002038BD01740020704790F8FC3180F8FD31CC
:2048A000042380F8FC310020704790F8FD3180F8FC310020704708B590F8FC31032B01D0B2
:2048C000002008BDD0F81432DB69002BF8D09847F6E700207047002070470020704708B5B0
:2048E000012280F8FC21D0F81422526801799047002008BD0B7803704B784370CA788B7861
:2049000003EB022343804A790B7903EB02238380CA798B7903EB0223C380704710B5044601
:20492000802100F02DFD0021204600F029FD10BD30B583B005460C464B78092B00F26881CB
:20494000DFE813F02D015001660143016601A0000A0066011101C4004A88130A013B062BB9
:2049600000F28C80DFE803F0041E328A8A6E7B00D0F810321B680DF10601007C9847BDF88C
:204980000620002A00F04681E388002B00F042819A4228BF1A46ADF806200146284600F034
:2049A00001FA37E1037C43B9D0F814329B6A0DF10600984702234370E1E7D0F81432DB6A80
:2049C0000DF10600984702234370D8E7D2B2052A34D8DFE802F0030B131B232BD0F8103251
:2049E0005B680DF10601007C9847C8E7D0F810329B680DF10601007C9847C0E7D0F81032C7
:204A0000DB680DF10601007C9847B8E7D0F810321B690DF10601007C9847B0E7D0F81032C5
:204A20005B690DF10601007C9847A8E7D0F810329B690DF10601007C9847A0E72146FFF771
:204A40006DFFE7E0037C33B9D0F814325B6B0DF10600984793E72146FFF760FFDAE0037C92
:204A600043B9D0F814321B6B0DF1060098470723437084E72146FFF751FFCBE02146FFF7C6
:204A80004DFFC7E08B88E3B9CB88D3B990F8FC31032B0FD04C8804F07F0480F8FE4121466A
:204AA00000F098FC284600F0A9F934B1022385F8FC31AFE0FFF732FFACE0012385F8FC31AE
:204AC000A8E021462846FFF729FFA3E08B78534A1370012B08D890F8FC21022A07D0032AD4
:204AE0001BD0FFF71BFF95E0FFF718FF92E08BB101214160032380F8FC31FFF7DCFD022804
:204B000003D0284600F07AF984E021462846FFF705FF7FE000F072F97CE08BB14168012999
:204B20001ED0C9B2FFF7D3FD3C4B197869602846FFF7C1FD02280ED0284600F05FF969E03C
:204B4000022380F8FC3100214160FFF7C0FD284600F054F95EE021462846FFF7DFFE59E04C
:204B600000F04CF956E0CB88012B08D190F8FC31022B07D0032B0DD0FFF7D0FE4AE0FFF7CA
:204B8000CDFE47E00146002341F8083F012200F009F93FE00122011D00F004F93AE090F835
:204BA000FC31023B012B0DD80123C360D0F804320BB10323C360022205F10C01284600F0AB
:204BC000F1F827E0FFF7AAFE24E04B88012B21D1C0F80432D0F814329B689847284600F016
:204BE0000DF917E090F8FC31023B012B0DD84B88012B0FD10023C0F80432D0F814329B68B4
:204C00009847284600F0FAF804E0FFF787FE01E0FFF784FE002003B030BD00BF800A002084
:204C200038B504460D4690F8FC31032B0FD10B79012B09D8D0F814329B689847EB8843B937
:204C4000204600F0DBF804E0FFF768FE01E0FFF765FE002038BD38B505460C468A880B787D
:204C600003F06003202B09D0D1B26378012B2BD0032B08D0002B4AD0002038BDD0F81432C7
:204C80009B689847F8E790F8FC31022B05D0032B09D02146FFF742FEEEE711F07F0FEBD0D9
:204CA00000F06EFBE8E7638823B911F07F0F01D000F066FBD5F814329B682146284698478A
:204CC000284600F09BF8D7E790F8FC31022B05D0032B09D02146FFF721FECDE711F07F0FA8
:204CE000CAD000F04DFBC7E76388002BC4D111F07F0F03D1284600F081F8BDE700F04DFB73
:204D0000D5F814329B68214628469847F2E790F8FC31022B05D0032B09D02146FFF7FEFDDA
:204D2000AAE711F07F0FA7D000F02AFBA4E712F0800F01F07F0400EB041414BF143404F520
:204D4000827400F037FB003818BF0120206002222146284600F026F88EE710B310B58446BD
:204D6000037843B1C0F1010E00EB0E03DBB210F8014F002CF8D15B00023313800B7003236A
:204D80004B709CF8000058B1022300245A1CD2B2C8540233DBB28C541CF8010F0028F5D1A8
:204DA00010BD704708B513460222C0F8F4218361C3610A46002100F01AFB002008BD08B548
:204DC00013460A46002100F012FB002008BD08B513460322C0F8F421C0F80831C0F80C3139
:204DE0000A46002100F010FB002008BD08B513460A46002100F008FB002008BD08B504231F
:204E0000C0F8F43100231A46194600F0F0FA002008BD08B50523C0F8F43100231A46194670
:204E200000F0F2FA002008BD82B0002100910B4B5A6C42F480425A645A6C02F480420092EB
:204E4000009A01911A6C42F080521A641B6C03F080530193019B02B0704700BF00380240FF
:204E600000B589B00023039304930593069307930268154B9A4202D009B05DF804FB002183
:204E8000019103F500331A6C42F480421A641A6C02F480420192019A02911A6B42F002029F
:204EA0001A631B6B03F002030293029B4FF46043039302230493032306930523079303A960
:204EC0000248FDF7EBF8D7E7003800400004024008B50548054B03600623436040F6FF7304
:204EE0008360FDF7D3F908BD840A00200030004030B595B03022002108A800F09BFB002435
:204F00000394049405940694079401941D4B1A6C42F080521A641B6C03F080530193019B12
:204F20000294194B1A6842F480421A601B6803F480430293029B092308934FF480330993BB
:204F400001230D9302250E954FF480030F9306231093A823119312950723139308A8FDF705
:204F6000C5FE0F230393049505944FF4A05306934FF480530793052103A8FEF7D7F815B09B
:204F800030BD00BF003802400070004080B58AB0FCF706FE002405940694079408940994AA
:204FA0000194474B1A6B42F004021A631A6B02F004020192019A02941A6B42F080021A6399
:204FC0001A6B02F080020292029A03941A6B42F001021A631A6B02F001020392039A049496
:204FE0001A6B42F002021A631B6B03F002030493049BDFF8E08022464AF22C314046FDF713
:205000003BF901224FF400714046FDF735F92D4F224648F2A0013846FDF72EF901224FF41F
:2050200000413846FDF728F9274D224641F207012846FDF721F9012204212846FDF71CF94A
:205040004AF22C330593012606960794089405A94046FDF723F848F2A00305930696079434
:20506000089405A93846FDF719F841F20703059306960794089405A92846FDF70FF8FFF7AE
:2050800037FF1248124B03604FF4827343608460C460046144614FF4007383612023C361D2
:2050A0000462446284620A23C362FEF7F6F94FF47A70FCF7A1FDFCF701FCFBF7A7FFFCE79F
:2050C000003802400000024000040240900A0020003800400008024070477047FEE7FEE71A
:2050E000FEE7FEE770477047704708B5FCF772FD08BD000008B50248FDF77CF908BD00BFE9
:205100000C0D00200F49D1F8883043F47003C1F888300D4B1A6842F001021A6000209860C1
:205120001A6822F0847222F480321A60074A5A601A6822F480221A60D8604FF000638B601F
:20514000704700BF00ED00E0003802401030002410B5094C002209492046FFF789FA084970
:205160002046FFF79CFA07492046FFF77AFA2046FFF79CFA10BD00BFE80A0020D400002099
:205180001C000020C40000200368B3F1A04F00D0704710B586B04FF4C053019302230293CB
:2051A00000240394032304930A23059301A90E48FCF774FF0D4B5A6B42F080025A6300942A
:2051C0005A6C42F480425A645B6C03F480430093009B224621464320FCF734FD4320FCF7F8
:2051E00067FD06B010BD00BF000002400038024008B500F56F71D0F8EC03FFF76FFA08BDE0
:2052000008B5C1EBC10300EB8303D3F80422D0F8EC03FFF790FA08BD08B5C1EBC10300EBEB
:2052200083035A6CD0F8EC03FFF7BBFA08BD08B5D0F8EC03FFF73FFB08BD10B50446C1685A
:20524000003918BF0121D0F8EC03FFF722FBD4F8EC03FFF7FFFA10BD10B50446D0F8EC0315
:20526000FFF71AFB2268D2F8003E43F00103C2F8003E236A23B1034A136943F00603136188
:2052800010BD00BF00ED00E008B5D0F8EC03FFF70CFB08BD08B5D0F8EC03FFF71CFB08BD39
:2052A00008B5D0F8EC03FFF714FB08BD08B5D0F8EC03FFF712FB08BD08B5D0F8EC03FFF70A
:2052C0000EFB08BD02780AB10020704710B503461548C0F8EC33C3F820024FF0A043036050
:2052E000042343600222C2600023036143618261C36103624362C3620363FCF7F2FF80B9BA
:20530000094C80212046FDF7ECFC402200212046FDF7BFFC802201212046FDF7BAFC0020C9
:2053200010BDFFF7D9FEEBE70C0D002008B5D0F82002FDF749F8034618B1022814BF0223B8
:205340000123184608BD08B594461A466346D0F82002FDF777FB034618B1022814BF0223E2
:205360000123184608BD08B5D0F82002FDF7B0FB034618B1022814BF02230123184608BD25
:2053800008B5D0F82002FDF724FC034618B1022814BF02230123184608BD08B5D0F8200230
:2053A000FDF74BFC034618B1022814BF02230123184608BDD0F8203211F0800F01F07F011C
:2053C000C1EBC10103EB810114BF91F83A0091F8FA01704708B5D0F82002FDF721FB03461E
:2053E00018B1022814BF02230123184608BD08B5D0F82002FDF7BFFB034618B1022814BF17
:2054000002230123184608BD08B5D0F82002FDF784FB034618B1022814BF02230123184650
:2054200008BD0020704700207047000000B585B0244BD3F8180203460DF1030200F1080C6A
:2054400013F8011F02F8011F6345F9D19DF80430352B09D0362B0FD0372B18D0FBF772FDA8
:20546000002005B05DF804FB9DF80630322BF5D10530FCF765F9F3E79DF80630312BEDD1D0
:205480009DF80830382BE9D1FBF766FDE8E79DF80630312BE2D19DF80730302B0AD09DF88E
:2054A0000730342BDAD19DF80830332BD6D1FBF74FFDD5E79DF80830302BF0D1FBF74CFDBB
:2054C000CEE700BFE80A002012230B8000487047F000002004230B800048704704010020A1
:2054E00008B50A4602490348FFF737FC004808BDFC100020B05D000810B50A46034C2146C7
:205500000348FFF72AFC204610BD00BFFC100020BC5D000808B50A4602490348FFF71DFC33
:20552000004808BDFC100020D05D000808B50A4602490348FFF711FC004808BDFC1000201E
:20554000E05D000808B50A4602490348FFF705FC004808BDFC100020EC5D0008DFF834D007
:20556000002103E00C4B5B58435004310B480C4B42189A42F6D30B4A02E0002342F8043BD9
:20558000094B9A42F9D3FFF7BDFD00F011F8FFF7FDFC7047000002200C5E0008000000200C
:2055A0006C0100206C01002010130020FEE7000070B50D4D0D4C641BA4100026A64209D1B6
:2055C0000B4D0C4C00F0CEF9641BA4100026A64205D170BD55F8043B98470136EEE755F85C
:2055E000043B98470136F2E7045E0008045E0008045E0008085E0008024B0146186800F0CD
:205600008DB800BF08010020024B0146186800F019B800BF080100200A44914200F1FF335C
:2056200000D1704710B511F8014B03F8014F9142F9D110BD02440346934200D1704703F82C
:20564000011BF9E737B5002944D051F8043C0190002BA1F10404B8BFE41800F0E3F81E4AA0
:205660000198136833B96360146003B0BDE8304000F0DEB8A34208D9256861198B4201BF4B
:2056800019685B6849192160EDE71A465B680BB1A342FAD911685518A5420BD124682144DE
:2056A0005418A3421160E0D11C685B68536021441160DAE702D90C230360D6E725686119B5
:2056C0008B4204BF19685B68636004BF491921605460CAE703B030BDFC12002070B50E4ED9
:2056E0000C463168054611B900F08CF830602146284600F087F8431C0AD0C41C24F003042E
:20570000A04207D0211A284600F07CF8013001D14FF0FF34204670BD001300202DE9F04141
:20572000CD1C25F0030508350C2D38BF0C25002D074601DBA94205D90C233B600026304640
:20574000BDE8F0812E4E00F06DF833681C4634BB29463846FFF7C2FF431C04464DD134686F
:205760002646002E40D123683146384604EB030800F048F880453AD1216803356D1A25F0A7
:20578000030508350C2D38BF0C2529463846FFF7A5FF01302BD023682B4423600EE02268BB
:2057A000521B1ED40B2A16D96119A342256018BF5960636808BF316062514B60384604F1FE
:2057C0000B0600F035F826F00706231DF21AB6D09B1BA350B3E76268A3420CBF32605A609D
:2057E000ECE723466468B2E734467668B9E70C233B60384600F01CF8A1E72560DEE700BF33
:20580000FC12002038B5064D0023044608462B6000F09AF8431C02D12B6803B1236038BD61
:2058200004130020014800F009B800BF08130020014800F004B800BF0813002070477047E0
:2058400051EC100B2DE9F041C1F30A57A7F2FF36132E10EE105A10EE108A0C4630DC002EF9
:2058600012DA35A3D3E90023FAF7BCFC00220023FAF7ECFE28B1002C55DB2C4357D0304C75
:2058800000252146284625E02E4F374101EA070303431FD028A3D3E90023FAF7A3FC00228E
:2058A0000023FAF7D3FE0028EBD0002CC2BF4FF4801343FA06F6A41924EA07040025E0E7A2
:2058C000332E0BDDB6F5806F04D110EE102A0B46FAF788FC41EC100BBDE8F081A7F21347C1
:2058E0004FF0FF3323FA07F70742F3D012A3D3E90023FAF777FC00220023FAF7A7FE002815
:20590000BFD0002C02DD142E03D1013425EA0705B7E70123C6F1340603FA06F635444545D8
:2059200038BFE418F2E700254FF00044A9E72546A7E700BFAFF300809C7500883CE4377E1B
:205940000000F03FFFFF0F00044A1168034609B90349116010680344136070470C13002054
:2059600010130020F8B500BFF8BC08BC9E467047F8B500BFF8BC08BC9E4670478D01020452
:2059800008102040801B360052096AD53036A538BF40A39E81F3D7FB7CE339829B2FFF87F1
:2059A000348E4344C4DEE9CB547B9432A6C2233DEE4C950B42FAC34E082EA16628D924B2B0
:2059C000765BA2496D8BD12572F8F66486689816D4A45CCC5D65B6926C704850FDEDB9DA22
:2059E0005E154657A78D9D8490D8AB008CBCD30AF7E45805B8B34506D02C1E8FCA3F0F0259
:205A0000C1AFBD0301138A6B3A9111414F67DCEA97F2CFCEF0B4E67396AC7422E7AD35856B
:205A2000E2F937E81C75DF6E47F11A711D29C5896FB7620EAA18BE1BFC563E4BC6D27920FA
:205A40009ADBC0FE78CD5AF41FDDA8338807C731B11210592780EC5F60517FA919B54A0D06
:205A60002DE57A9F93C99CEFA0E03B4DAE2AF5B0C8EBBB3C83539961172B047EBA77D62624
:205A8000E169146355210C7D637C777BF26B6FC53001672BFED7AB76CA82C97DFA5947F00F
:205AA000ADD4A2AF9CA472C0B7FD9326363FF7CC34A5E5F171D8311504C723C31896059AC1
:205AC000071280E2EB27B27509832C1A1B6E5AA0523BD6B329E32F8453D100ED20FCB15BAF
:205AE0006ACBBE394A4C58CFD0EFAAFB434D338545F9027F503C9FA851A3408F929D38F560
:205B0000BCB6DA2110FFF3D2CD0C13EC5F974417C4A77E3D645D197360814FDC222A908838
:205B200046EEB814DE5E0BDBE0323A0A4906245CC2D3AC629195E479E7C8376D8DD54EA94C
:205B40006C56F4EA657AAE08BA78252E1CA6B4C6E8DD741F4BBD8B8A703EB5664803F60EC2
:205B6000613557B986C11D9EE1F8981169D98E949B1E87E9CE5528DF8CA1890DBFE6426832
:205B800041992D0FB054BB1632203120352027466C617368206D656D6F7279206368697090
:205BA000207265616479270032203120362027466C6173682063686970206E6F7420666F51
:205BC000756E64270000000032203120302027526561647920666F72206669726D776172C9
:205BE000652075706461746527000000322031203120274669726D77617265207375636350
:205C000065737366756C6C79207665726966696564270000322031203720275265626F6F60
:205C200074270000322031203220274669726D7761726520697320636F727275707465647C
:205C400027000000322031203320274669726D776172652075706C6F6164656420657272EC
:205C60006F7227003220312038202743616E63656C2700003120322027436F6D6D616E6404
:205C800020656E747279206572726F722700000032203120392027557064617465207379AF
:205CA0007374656D20756E6C6F636B6564270000322031203130202755706461746520734E
:205CC000797374656D20626C6F636B6564270000312038203020312032203220302E3030CB
:205CE0003020352E313020322E3020506C6174666F726D204469786F6D2D6D20417349574C
:205D0000616E7400312038203120303030302D303030302D303030302D303030302030303F
:205D200030303030303030303030000031203820322032302E30352E3230323220302030FF
:205D40002030203000000000312038203320302E30303020302E303020302030000000003B
:205D600031203520302030203220312030203000BA469E2547CA48B4D1F8AE10F5DD311947
:205D80002BDE48FFA4EB9479BC05394C8A66C18D651B762091C4AD146AF495E43BECF4F382
:205DA00000000000000000000102030406070809424F4F544C4F4144455200004449584F9C
:205DC0004D20456C656374726F6E6963730000003030303030303030303031410000000089
:205DE00048494420436F6E666967000048494420496E74657266616365000000E4A8FF7FC8
:205E000001000000AD0100088901000803002C01E8033C00FE0100000500000004000000DA
:205E20000601000010000000EB450008B9450008ED44000800000000994400088D44000816
:205E4000C9440008000000000000000000000000814400088144000881440008BD440008BD
:205E600009022900010100C032090400000203000000092111010001222700070581034092
:205E80000001070501034000010000000921110100012227000000000A06000200000040D8
:205EA000010000000024F4000600FF0901A10185010901150026FF0075089540B182850143
:205EC0000901918285020902750895408182C0009C00002023540008275400082D540008B7
:205EE000C9540008D5540008F9540008E1540008155500082D550008455500081201000207
:205F00000000004055F007000002010203010000040309040C0100200000000000000000AB
:205F2000000000000000000000000000000000000000000000000000000000000000000061
:205F4000000000000000000000000000000000000000000000000000000000000000000041
:205F6000000000000000000000000000000000000000000000000000FFFFFFFFFFFFFFFF29
:205F8000FFFFFFFFFFFFFFFFFFFFFFFFFFFFFFFFFFFFFFFFFFFFFFFFFFFFFFFFFFFFFFFF21
:205FA000FFFFFFFFFFFFFFFFFFFFFFFFFFFFFFFFFFFFFFFFFFFFFFFFFFFFFFFFFFFFFFFF01
:205FC000FFFFFFFFFFFFFFFFFFFFFFFFFFFFFFFFFFFFFFFFFFFFFFFFFFFFFFFFFFFFFFFFE1
:205FE000FFFFFFFFFFFFFFFFFFFFFFFFFFFFFFFFFFFFFFFFFFFFFFFFFFFFFFFFFFFFFFFFC1
:020000040800F2
:020000040800F2
:2080000000000220D1C101089D970108AB970108B5970108BB970108C39701080000000008
:20802000000000000000000000000000B17A0108CB97010800000000017D0108D9970108A1
:2080400021C2010821C2010821C2010821C2010821C2010821C2010821C2010821C20108C0
:2080600021C2010821C2010821C2010821C2010821C20108F597010821C2010821C20108F7
:2080800021C201080998010821C201081D98010831980108459801085998010821C2010802
:2080A00021C201086D98010821C2010821C2010821C201088198010821C2010895980108BE
:2080C000A9980108BD980108D198010821C2010821C20108E5980108F99801080D990108DF
:2080E00021C2010821C2010821C2010821C2010821C2010821C2010821C201082199010849
:2081000021C2010821C2010821C2010821C2010821C20108359901084999010869990108F6
:208120008199010821C201089599010821C2010821C20108000000000000000021C2010835
:2081400021C2010821C2010821C20108A9990108BD99010821C20108D599010821C2010862
:2081600021C2010821C2010821C2010821C2010821C2010821C20108000000000000000077
:2081800021C2010821C20108000000000000000010B5054C237833B9044B13B10448AFF369
:2081A00000800123237010BD700A002000000000F4CA010808B5034B1BB103490348AFF34A
:2081C000008008BD00000000740A0020F4CA010853B94AB9002908BF00281CBF4FF0FF3184
:2081E0004FF0FF3000F074B9ADF1080C6DE904CE00F006F8DDF804E0DDE9022304B070471D
:208200002DE9F047089D04468E46002B4DD18A42944669D9B2FA82F252B101FA02F3C2F157
:20822000200120FA01F10CFA02FC41EA030E94404FEA1C48210CBEFBF8F61FFA8CF708FBED
:2082400016E341EA034306FB07F199420AD91CEB030306F1FF3080F01F81994240F21C8110
:20826000023E63445B1AA4B2B3FBF8F008FB103344EA034400FB07F7A7420AD91CEB040427
:2082800000F1FF3380F00A81A74240F207816444023840EA0640E41B00261DB1D4400023A1
:2082A000C5E900433146BDE8F0878B4209D9002D00F0EF800026C5E9000130463146BDE898
:2082C000F087B3FA83F6002E4AD18B4202D3824200F2F980841A61EB030301209E46002DC5
:2082E000E0D0C5E9004EDDE702B9FFDEB2FA82F2002A40F09280A1EB0C014FEA1C471FFA9C
:208300008CFE0126200CB1FBF7F307FB131140EA01410EFB03F0884208D91CEB010103F1B4
:20832000FF3802D2884200F2CB804346091AA4B2B1FBF7F007FB101144EA01440EFB00FEF9
:20834000A64508D91CEB040400F1FF3102D2A64500F2BB800846A4EB0E0440EA03409CE756
:20836000C6F12007B34022FA07FC4CEA030C20FA07F401FA06F31C43F9404FEA1C4900FA8F
:2083800006F3B1FBF9F8200C1FFA8CFE09FB181140EA014108FB0EF0884202FA06F20BD93C
:2083A0001CEB010108F1FF3A80F08880884240F28580A8F102086144091AA4B2B1FBF9F0B3
:2083C00009FB101144EA014100FB0EFE8E4508D91CEB010100F1FF346CD28E456AD9023892
:2083E000614440EA0840A0FB0294A1EB0E01A142C846A64656D353D05DB1B3EB080261EB6F
:208400000E0101FA07F722FA06F3F1401F43C5E9007100263146BDE8F087C2F12003D840E6
:208420000CFA02FC21FA03F3914001434FEA1C471FFA8CFEB3FBF7F007FB10360B0C43EAB2
:20844000064300FB0EF69E4204FA02F408D91CEB030300F1FF382FD29E422DD90238634422
:208460009B1B89B2B3FBF7F607FB163341EA034106FB0EF38B4208D91CEB010106F1FF38CF
:2084800016D28B4214D9023E6144C91A46EA004638E72E46284605E70646E3E61846F8E6BE
:2084A0004B45A9D2B9EB020864EB0C0E0138A3E74646EAE7204694E74046D1E7D0467BE7E3
:2084C000023B614432E7304609E76444023842E7704700BF90B482B000AFCB4B93F848307C
:2084E000012B40F0C3840023FB802CE0B7F90630C54A40F2D63101FB03F3134403F59B43E2
:2085000047331B78012B18D1B7F90620BE4940F2D63302FB03F30B4403F59B4340331B88F3
:20852000013398B2B84940F2D63302FB03F30B4403F59B43403302461A80B7F906309BB2E1
:2085400001339BB2FB80B7F90630042BCEDD0023BB8000F00ABCB7F90430AB4A40F2D63139
:2085600001FB03F3134403F59B4342331A88B7F90400B7F90430A44940F2D63404FB03F30F
:208580000B4403F59B4348331B789F4C990140F2D63300FB03F30B44234403F59443063339
:2085A0001B8813439AB2B7F90400B7F90430964940F2D63404FB03F30B4403F59B4348332E
:2085C0001B78914C990140F2D63300FB03F30B44234403F5944308331B8813439AB2B7F9B0
:2085E0000400B7F90430884940F2D63404FB03F30B4403F59B4348331B78834C990140F2C3
:20860000D63300FB03F30B44234403F594430A331B8813439AB2B7F90400B7F904307A49FE
:2086200040F2D63404FB03F30B4403F59B4348331B78754C990140F2D63300FB03F30B4400
:20864000234403F594430C331B8813439BB2002B28D1B7F904306C4A40F2D63101FB03F376
:20866000134403F59B434C3301221A70B7F90430654A40F2D63101FB03F3134403F59B43B6
:20868000463303221A70B7F904305F4A40F2D63101FB03F3134403F59B43423341F25C12B7
:2086A0001A805CE3B7F90430574A40F2D63101FB03F3134403F59B4340331A88B7F904003B
:2086C000B7F90430504940F2D63404FB03F30B4403F59B4348331B784B4C990140F2D6334D
:2086E00000FB03F30B44234403F5944310331B889A420CBF01230023DAB2B7F90400B7F940
:208700000430414940F2D63404FB03F30B4403F59B4348331B783C4C990140F2D63300FBDF
:2087200003F30B44234403F5944306331B88002B1BD1B7F90400B7F90430334940F2D6347B
:2087400004FB03F30B4403F59B4348331B782E4C990140F2D63300FB03F30B44234403F503
:20876000944308331B88002B01D0012300E0002303F00103DBB21340DBB2002B54D0B7F9BE
:208780000430013B204A40F2D63101FB03F3134403F59B4352331B88B3F5FA7F36D9B7F99F
:2087A0000430194A40F2D63101FB03F3134403F59B434E3300221A70B7F90430124A40F22B
:2087C000D63101FB03F3134403F59B434C3301221A70B7F904300C4A40F2D63101FB03F3E2
:2087E000134403F59B43463301221A70B7F90430054A40F2D63101FB03F3134403F59B439B
:20880000403301221A80AAE2AC230020B7F904306E4A40F2D63101FB03F3134403F59B43B9
:20882000403301221A809AE2B7F90430674A40F2D63101FB03F3134403F59B4342331A8888
:20884000B7F90400B7F90430604940F2D63404FB03F30B4403F59B4348331B785B4C990132
:2088600040F2D63300FB03F30B44234403F5944312331B889A4234BF01230023DAB2B7F90D
:208880000430524940F2D63000FB03F30B4403F59B434B331B78012B8CBF01230023DBB25F
:2088A0001340DBB21846B7F90430484A40F2D63101FB03F3134403F59B4347331B78002B74
:2088C0000CBF01230023DBB200EA0302B7F90400B7F904303D4940F2D63404FB03F30B446C
:2088E00003F59B4348331B78384C990140F2D63300FB03F30B44234403F594430A331B88E5
:20890000002B1BD1B7F90400B7F904302F4940F2D63404FB03F30B4403F59B4348331B78CC
